:020000040800F2
:100000003012002001020008C30B0008410B000859
:10001000C10B000845030008B310000800000000F1
:100020000000000000000000000000004D1000086B
:1000300047030008000000004B1000084F100008A4
:100040001B0200081B0200081B0200081B0200081C
:100050001B0200081B0200081B0200081B0200080C
:100060001B0200081B0200081B0200081B020008FC
:100070001B0200081B0200081B0200081B020008EC
:100080001B0200081B0200081B0200081B020008DC
:100090001B0200081B0200081B0200081B020008CC
:1000A0001B0200081B0200081B0200081B020008BC
:1000B0001B0200081B0200081B0200081B020008AC
:1000C0001B0200081B0200081B0200081B0200089C
:1000D0001B0200081B0200081B0200081B0200088C
:1000E0001B0200081B0200081B02000800F002F8B7
:1000F00000F05CF80AA090E8000C82448344AAF166
:100100000107DA4501D100F051F8AFF2090EBAE863
:100110000F0013F0010F18BFFB1A43F0010318473B
:10012000DC1A0000FC1A00000A444FF0000C10F822
:10013000013B13F0070408BF10F8014B1D1108BF65
:1001400010F8015B641E05D010F8016B641E01F805
:10015000016BF9D113F0080F1EBF10F8014BAD1C55
:100160000C1B09D16D1E58BF01F801CBFAD505E073
:1001700014F8016B01F8016B6D1EF9D59142D6D3CD
:10018000704700000023002400250026103A28BFF5
:1001900078C1FBD8520728BF30C148BF0B607047F9
:1001A0001FB500F062F81FBD10B510BD00F094F847
:1001B0001146FFF7F5FF01F00BF800F0B2F803B4B9
:1001C000FFF7F2FF03BC00F0B7F800000B49D1F8CD
:1001D00000C04A685CF8043B1068184442F8040BFD
:1001E0008C4528BFA1F1DC0C8A4228BFA1F1DC02BA
:1001F000C1F800C04A6020F000407047C80B0020E2
:100200000948804709480047FEE7FEE7FEE7FEE7AA
:10021000FEE7FEE7FEE7FEE7FEE7FEE704480549E6
:10022000054A064B70470000B1100008ED000008B9
:10023000300C002030120020300E0020300E002044
:100240000B4910B5A1F17C020A4CC2E937123721E3
:1002500006E000EB104342F82130074B00FB03405F
:100260000B1EA1F10101F4DC10BD0120E8E7000044
:10027000680B0020E119D666CD0D01004FF0000299
:1002800000B5134694469646203922BFA0E80C508C
:10029000A0E80C50B1F12001BFF4F7AF090728BF67
:1002A000A0E80C5048BF0CC05DF804EB890028BFE3
:1002B00040F8042B08BF704748BF20F8022B11F00C
:1002C000804F18BF00F8012B704770477047704788
:1002D00000487047D00B00207546FFF7F9FFAE4687
:1002E00005006946534620F00700854618B020B542
:1002F000FFF794FFBDE820404FF000064FF00007E5
:100300004FF000084FF0000B21F00701AC46ACE8BD
:10031000C009ACE8C009ACE8C009ACE8C0098D462A
:10032000704710B50446AFF300802046BDE810408A
:10033000FFF745BF7047000001491820ABBEFEE73C
:1003400026000200FEE7704770B5044600F008F989
:100350000546601C02D004480078044400F000F90F
:10036000401BA042FAD370BDDC0600202DE9F84FF7
:10037000DFF8B8910024A9F1040B23460F2709F1F7
:10038000040AABF1040EC9E00125A5402A40AA42A7
:100390007DD1674ED1F804C0ACEB0608B44532D02D
:1003A00014DCBCF1030F3AD009DCBCF1000F2AD0F9
:1003B000BCF1010F1CD0BCF1020F31D11DE0BCF12A
:1003C000110F17D0BCF1120F2AD119E0B8F5881F10
:1003D00019D006DCB8F5803F15D0B8F5801F1FD1C5
:1003E00011E0B8F5001F0ED0B8F5041F18D10AE0CF
:1003F000CB6815E0CB681B1D12E0CB6808330FE01B
:10040000CB680C330CE08B682BB1012B4FF0080349
:1004100003D0456104E0042302E0056100E000230D
:10042000FF2A01D8064601E000F104064FEA8405E0
:1004300001D9A5F12005D6F8008007FA05FC28EAC5
:100440000C0803FA05F548EA0508C6F800804D686F
:10045000ED0062D5374DAE6946F00106AE61AD697B
:1004600024F0030605F001050095334D06EB050C5D
:10047000DCF80850A607360F07FA06F825EA080543
:10048000DFF8B880404503D14FF0000817E044E0A2
:10049000DFF8AC80404502D14FF001080FE0DFF8F3
:1004A000A480404502D14FF0020808E0DFF89880B0
:1004B000404502D14FF0030801E04FF0040808FA6C
:1004C00006F848EA0508CCF808804D68D9F80060BD
:1004D000ED024D4601D5164300E096432E604D686F
:1004E000DAF80060AD02554601D5164300E09643A8
:1004F0002E604D68DBF80060AD035D4601D5164304
:1005000000E096432E604D68DEF80060ED0375460E
:1005100001D5164300E096432E60641C0D682A4600
:10052000E5407FF431AFBDE8F88F000008040140DA
:1005300000001110001002400000014000080140BE
:10054000000C014000100140001401408068084088
:1005500000D0012070470AB1016170470904FBE730
:100560000148806870470000DC060020024881686E
:100570000278114481607047DC060020074810B5FE
:10058000016841F010010160032000F067F80F20BE
:1005900000F006F800F024F8002010BD0020024012
:1005A00070B50D4D04464FF47A712878B1FBF0F028
:1005B0000A490968B1FBF0F000F0AEFA48B9102C16
:1005C00007D200222146501E00F028F800206C605F
:1005D00070BD012070BD0000DC060020E806002090
:1005E0000C4808B5816941F001018161816901F020
:1005F00001010091C16941F08051C161C06900F001
:10060000805000900448416821F0E06141F00071A1
:10061000416008BD0010024000000140F0B40E4BE4
:100620001B680C46C3F30223C3F10705042D00D950
:100630000425191D072901D2002300E0DB1E012635
:1006400006FA05F1491E214099409E40761E16404B
:100650003143F0BC00F02EBD0CED00E0064900F087
:10066000070208684FF6FF03184040EA0220034AD9
:1006700010430860704700000CED00E00000FA0530
:100680002DE9F0470F46050061D0434E306800F079
:100690000700B84209D2306820F0070038433060C4
:1006A000306800F00700B84251D128683B4C810700
:1006B00012D5400703D5606840F4E0606060287898
:1006C000000703D5606840F4605060606068A96806
:1006D00020F0F000084360602878C00728D06868E0
:1006E000012810D02168022810D0890700292EDAAD
:1006F000616821F0030101436160FFF731FF80462B
:1007000041F288390DE021688903EFE78901EDE7BF
:10071000FFF726FFA0EB0801494502D90320BDE8F9
:10072000F0876068696800F00C00B0EB810FEFD1D2
:10073000306800F00700B8420BD9306820F007009D
:1007400038433060306800F00700B84201D0012023
:10075000E5E72878400705D56068E96820F4E0609F
:10076000084360602878000706D56068296920F48E
:10077000605040EAC100606000F018F86168084A03
:10078000C1F30311515CC84006490860064800687F
:10079000FFF706FF0020C2E70020024000100240E1
:1007A000EC1B0008E8060020E00600200E4A516815
:1007B0000E4801F00C03042B11D0082B0FD10C486C
:1007C000C1F38343C903C05C0AD55168084AC1F329
:1007D0004041921E515C054A5043B0FBF1F0704716
:1007E00004494843704700000010024000127A009C
:1007F000DC1B000800093D002DE9F84F040070D013
:100800002078C04DC00749D06868C0F38100012836
:1008100007D06868C0F38100022809D16868C00366
:1008200006D52868800339D560680028E7D035E010
:100830006068B0F5803F0BD010B1B0F5A02F11D09B
:10084000286820F480302860286820F4802002E0A6
:10085000286840F480302860606890B1FFF780FE1F
:1008600006460AE0286840F480202860F0E700BFD0
:10087000FFF776FE801B642873D828688003F7D5BD
:100880000CE0FFF76DFE064605E000BFFFF768FECF
:10089000801B6428F0D828688003F7D420789A4E0B
:1008A00080074FF001094FF0000839D5686810F053
:1008B0000C0F07D06868C0F38100022809D168686E
:1008C000C00306D42868800714D52069012808D100
:1008D00010E02069B0B1C6F80090FFF741FE07466E
:1008E00005E00AE1FFF73CFEC01B0228C4D82868D7
:1008F0008007F7D52868616920F0F80040EAC10058
:1009000028600DE0C6F80080FFF72AFE074604E0E5
:10091000FFF726FEC01B022823D828688007F7D4DB
:10092000207800072CD57948A169D9B1C0F800908A
:10093000FFF716FE074604E0FFF712FEC01B022871
:100940000FD8686A8007F7D571484FF4FA510068EC
:10095000B0FBF1F0009000BF0098411E0091FAD268
:100960000EE080E0C0F80080FFF7FAFD074604E0E3
:10097000FFF7F6FDC01B022875D8686A8007F7D418
:100980002078400760D5E8690027C00008D4E869EE
:1009900040F08050E861E869012700F08050009045
:1009A0005C480168C90513D40168834641F480712D
:1009B0000160FFF7D5FD824606E000BFFFF7D0FDDE
:1009C000A0EB0A0064284ED8DBF80000C005F5D57E
:1009D000E06801280AD008B1052813D0286A20F061
:1009E00001002862286A20F0040002E0286A40F032
:1009F00001002862E06841F2883B98B1FFF7B0FD42
:100A000082460BE0286A40F004002862EEE700BF4F
:100A1000FFF7A6FDA0EB0A0159455AD8286A8007BE
:100A2000F6D50CE0FFF79CFD824605E0FFF798FD48
:100A3000A0EB0A0159454CD8286A8007F6D41FB1AB
:100A4000E86920F08050E861E06988B36968C1F323
:100A50008101022944D00228C6F8608004D0FFF743
:100A60007FFD044638E034E0FFF77AFD074604E0F6
:100A7000FFF776FDC01B02282BD828688001F7D429
:100A8000206AB0F5803F05D16868A16820F4003085
:100A900008436860D4E908010843696821F47411C7
:100AA00008436860C6F86090FFF75AFD044606E008
:100AB00025E000BFFFF754FD001B022809D8286875
:100AC0008001F7D51BE000BFFFF74AFD001B02289D
:100AD00002D90320BDE8F88F28688001F4D40EE025
:100AE0000128F7D06868226A00F48031914204D16D
:100AF000616A00F47010884201D00120EAE700200A
:100B0000E8E7000000100240000042428004424238
:100B1000E80600200070004010B5401EB0F1807F54
:100B200001D3012010BD4FF0E02460610F21601758
:100B300000F0C0FA0020A06107202061002010BD55
:100B4000FEE7000030B585B000241B4800940194F6
:100B500002940394816941F020018161816901F06F
:100B600020010491816941F0040181618069134D84
:100B700000F0040001220490D1022846FFF7EBFCAC
:100B80000022A9142846FFF7E6FC8020CDE90004E6
:100B90000124694628460294FFF7E8FB4FF4C05051
:100BA000CDE900040320CDE9024069462846FFF75D
:100BB000DDFB05B030BD0000001002400008014020
:100BC000FEE7FEE710B50021074C0A46002004EBC3
:100BD000C1131A54401CC0B28028FAD3491CC9B2B0
:100BE0000829F3D310BD0000EC060020F0B50B443B
:100BF00024E0044685181DE07F2C19D8002917DB56
:100C00003F2915DCCE1701EB56764FEAE60C0D4F67
:100C100026F0070607EBCC172744A1EB060E97F842
:100C200000C0012606FA0EF62CEA060C87F800C072
:100C3000641C24B2A542DFDC491C09B28B42D8DC1B
:100C4000F0BD0000EC06002010B57F2813D8002965
:100C500011DB3F290FDCCA1701EB5272D410064B8F
:100C600022F0070203EBC41318448A1A0378012107
:100C700091400B43037010BDEC0600202DE9F043BA
:100C80000446CD1807988846A618274668BB681EF4
:100C90000FFA80F909E041463846FFF7D5FF49468B
:100CA0003846FFF7D1FF7F1C3FB2BE42F3DC761E11
:100CB000474636B209E039462046FFF7C5FF3046C1
:100CC0003946FFF7C1FF7F1C3FB2BD42F3DCBDE8F0
:100CD000F083444605E021463846FFF7B5FF641C23
:100CE00024B2A542F7DC7F1C3FB2BE42F1DCEEE746
:100CF00010B54FF4FA70FFF727FB012000F06CF9F4
:100D0000BDE81040012000F06FB970B50024064620
:100D1000802525FA04F0304000D0012000F064F96D
:100D2000012000F059F9002000F056F9641CE4B2EB
:100D3000082CEED3012000F04FF9BDE870400020F0
:100D400000F04AB910B5012000F04EF9012000F082
:100D500043F9002000F048F9BDE81040002000F001
:100D60003BB910B5002000F03FF9012000F034F944
:100D7000BDE81040012000F037B910B5FFF7B8FF0B
:100D8000AE2000F039F9D52000F036F9802000F0CF
:100D900033F9A82000F030F93F2000F02DF9D320DE
:100DA00000F02AF9002000F027F9402000F024F993
:100DB000A12000F021F9C82000F01EF9DA2000F08F
:100DC0001BF9122000F018F9812000F015F9CF204E
:100DD00000F012F9D92000F00FF9F12000F00CF921
:100DE000DB2000F009F9302000F006F9A42000F023
:100DF00003F9A62000F000F98D2000F0FDF8142082
:100E000000F0FAF8AF2000F0F7F8BDE8104000F06D
:100E1000CFB80246012000E05043491EFCD2704783
:100E200010B50C4640F0B00000F0E6F8102040EAA3
:100E3000141000F0E1F804F00F00BDE8104000F0DD
:100E4000DBB8000008B5082B0DD0062B0AD10A4BE1
:100E500002EB420203EB4202C03A00920823062250
:100E600000F00EF808BD054B03EB0212A2F500726C
:100E7000102300920822F3E7A0190008B01300081D
:100E80002DE9F04F1F4616460D4682460024FFF717
:100E9000ADFE7F1EF81707EB50700121DFF898B008
:100EA00001EBE00743E000203DE000BF0AEB000358
:100EB0007F2B36D8E91705EB5171CA1021F00701D5
:100EC000691A002D03DA521E083112B209B202EB80
:100ED0000409B9F1070F0ED8099A04FB06F8024479
:100EE0000BEBC91E18F802201EF803C08A404CEA1A
:100EF000020C0EF803C009F10102072A11D80BEB0E
:100F0000C91202EB0308099A04FB06FC024498F894
:100F100080301CF80220C1F10801CA40134388F850
:100F20008030401CC0B2B042C0D3641CE4B2A742BF
:100F3000B9DCBDE8F08F0000EC0600202DE9F04799
:100F400000241D4690468A4681460A27089E14E0E2
:100F5000291B0A20491EFFF75CFFB8FBF0F0B0FB2D
:100F6000F7F107FB110204FB069000B2334651462D
:100F70003032FFF767FF641CE4B2AC42E8D3BDE84F
:100F8000F0872DE9F0411E461546884607460024A5
:100F900008E004FB067000B233464146FFF752FFFB
:100FA000641CE4B22A5D002AF3D1BDE8F0810000A0
:100FB00070B5084D002400212046FFF731FF05EBF6
:100FC000C410802100F029F8641CE4B2082CF2D38C
:100FD00070BD0000EC06002002464FF4006101489D
:100FE000FFF7B9BA0008014002464FF480510148AA
:100FF000FFF7B1BA0008014010B50446FFF7A2FEA2
:101000007820FFF782FE0020FFF77FFE2046FFF7E3
:101010007CFEBDE81040FFF7A4BE70B50D46064645
:10102000FFF790FE7820FFF770FE4020FFF76DFE7F
:10103000002404E0305DFFF768FE641CE4B2AC42BB
:10104000F8D3BDE87040FFF78CBE70477047FFF7DC
:101050008DBA30B58FB028216846FFF70FF91421FB
:101060000AA8FFF70BF901210804CDE900100024BC
:10107000029402250491CDE907504FF4E010099045
:101080006846FFF7B9FB08B172B6FEE70F20CDE95D
:101090000A054FF48060CDE90C4002210AA80E94A5
:1010A000FFF7EEFA002801D072B6FEE70FB030BDB0
:1010B0007047FEE70907090E002804DB00F1E02075
:1010C00080F80014704700F00F0000F1E02080F875
:1010D000141D704738B5FFF775FD0620354C00909C
:1010E000042300215020A269FFF728FF0125009565
:1010F000208823790A22002100B2FFF7BFFD009566
:10110000A0880623801F01B220880E22801E00B214
:10111000FFF7B4FD009560680A22C0F14001CBB230
:10112000143001B2208800B2FFF7A8FD0095A08816
:101130000623143001B220880E22801E00B2FFF771
:101140009DFD00952089237B0A22002100B2FFF734
:1011500095FD0095A0890623801F01B220890E22EB
:10116000801E00B2FFF78AFD0095E0680A22C0F1F8
:101170004001CBB2143001B2208900B2FFF77EFDEE
:101180000095A0890623143001B220890E22801E0A
:1011900000B2FFF773FD04F5DA600090A08A08231F
:1011A00001B20B221420FFF76BFEBDE83840FFF7B9
:1011B000FFBE00000000002010B580210348FFF7AB
:1011C000C5F908B1002010BD012010BD0008014084
:1011D000724C08B54FF0C00B8027C4F808B0002649
:1011E0002760FEF7F3FF2A2590FBF5F105FB1100C0
:1011F000401C6060FEF7EAFF90FBF5F105FB110073
:101200004FF0000804F10C014FF020094FF00A0ADA
:10121000401CC4F8188081E80106FFF7AFF9FFF71A
:1012200018FFFFF78FFCFFF7A8FD04F11C00002159
:101230000090402380220846FFF722FEFFF7B8FE09
:10124000FFF7BAFF0028FBD001E0002E5CD1FFF7CA
:10125000B3FF012801D1C4F810902068801E2060DF
:10126000A068801EA0602069401F206190FBFAF0FA
:101270006169081A6061FFF72DFF6069002802DAD2
:10128000C4F8148002E0402800DD012620680A30FE
:1012900008D12760FEF79AFF90FBF5F105FB1100DE
:1012A000401C6060A0680A3008D1A760FEF78EFF7E
:1012B00090FBF5F105FB1100401CE0602068A0F1F7
:1012C00014010B2908D862686169914203DB083177
:1012D0001432914200DD0126A168A1F114020B2A0B
:1012E00008D8E36862699A4203DB083214339A42F1
:1012F00000DD0126102801D0102902D1A069401C70
:10130000A0611E20FFF720F8012E9ED14FF4FA7045
:10131000FFF71AF8FFF756FC214800210090202320
:1013200080220846FFF7ACFD1E48202300902D22A6
:1013300019460820FFF7A4FD08231BA220214820FE
:10134000FFF71FFE08200090042330214820A269E7
:10135000FFF7F4FDFFF72CFE4FF4FA60FEF7F4FF01
:10136000FFF72AFF0028FBD0C4F808B0002627604A
:10137000FEF72CFF90FBF5F105FB1100401C6060AF
:10138000FEF724FF90FBF5F105FB1100401CC4E9BA
:1013900003093220C4E9050859E7000000000020D5
:1013A0001C0400201C06002053636F7265000000BF
:1013B000000000000000000000000000000000002D
:1013C000000000F8000000000000003330000000C2
:1013D00000160E00160E00000000000000000000C5
:1013E00040C07840C0784000043F04043F0404003B
:1013F000007088FC08300000001820FF211E00004B
:10140000F008F000E018000000211C031E211E005F
:1014100000F00888700000001E21232419272110E5
:10142000000000160E000000000000000000000098
:10143000000000E01804020000000007182040002F
:1014400000020418E000000000402018070000001F
:10145000404080F0804040000202010F0102020083
:10146000000000F0000000000101011F0101010067
:10147000000000000000000000B07000000000004C
:101480000000000000000000000101010101010155
:1014900000000000000000000030300000000000EC
:1014A00000000000806018040060180601000000C1
:1014B00000E010080810E000000F102020100F00BE
:1014C000001010F8000000000020203F2020000045
:1014D000007008080888700000302824222130009D
:1014E00000300888884830000018202020110E00A5
:1014F0000000C02010F8000000070424243F24004E
:1015000000F80888880808000019212020110E0022
:1015100000E0108888180000000F112020110E0034
:1015200000380808C83808000000003F000000002C
:101530000070880808887000001C222121221C00ED
:1015400000E010080810E0000000312222110F0016
:10155000000000C0C00000000000003030000000AB
:10156000000000C0C0000000000080B0700000005B
:101570000000804020100800000102040810200034
:10158000404040404040400004040404040404007F
:101590000008102040800000002010080402010014
:1015A000007048080808F000000000303601000014
:1015B000C030C828E810E0000718272423140B00C7
:1015C0000000C038E0000000203C23020227382041
:1015D00008F8888888700000203F202020110E0025
:1015E000C03008080808380007182020201008001C
:1015F00008F808080810E000203F202020100F0005
:1016000008F88888E8081000203F202023201800D0
:1016100008F88888E8081000203F20000300000038
:10162000C03008080838000007182020221E0200D9
:1016300008F808000008F808203F210101213F2098
:10164000000808F8080800000020203F20200000C3
:1016500000000808F8080800C08080807F000000B3
:1016600008F888C028180800203F200126382000EC
:1016700008F8080000000000203F20202020300053
:1016800008F8F800F8F80800203F003F003F20006D
:1016900008F830C00008F808203F200007183F0075
:1016A000E01008080810E0000F10202020100F00A4
:1016B00008F808080808F000203F21010101000097
:1016C000E01008080810E0000F18242438504F00DC
:1016D00008F8888888887000203F2000030C30209C
:1016E00000708808080838000038202121221C00DA
:1016F000180808F8080818000000203F2000000023
:1017000008F808000008F808001F202020201F000B
:101710000878880000C83808000007380E0100006B
:10172000F80800F80008F800033C0700073C030035
:10173000081868808068180820302C03032C30209B
:101740000838C800C83808000000203F200000000A
:1017500010080808C8380800203826212020180062
:10176000000000FE020202000000007F4040400036
:10177000000C30C000000000000000010638C0006E
:1017800000020202FE000000004040407F00000016
:1017900000201008040810200000000000000000D5
:1017A0000000000000000000808080808080808039
:1017B000000204080000000000000000000000001B
:1017C00000008080808000000019242222223F2017
:1017D00008F8008080000000003F112020110E005A
:1017E0000000008080800000000E112020201100E9
:1017F000000000808088F800000E112020103F209B
:101800000000808080800000001F2222222213001E
:10181000008080F0888888180020203F2020000069
:101820000000808080808000006B9494949360001E
:1018300008F8008080800000203F210000203F2029
:1018400000809898000000000020203F2020000029
:10185000000000809898000000C08080807F000019
:1018600008F8000080808000203F24022D302000F6
:10187000000808F8000000000020203F20200000A1
:101880008080808080808000203F20003F20003FBB
:10189000008080008080000000203F2100203F2049
:1018A0000000808080800000001F202020201F007A
:1018B000808000808000000080FFA12020110E00A9
:1018C0000000008080808000000E112020A0FF809A
:1018D000808080008080800020203F212000010047
:1018E000000080808080800000332424242419009C
:1018F000008080E0808000000000001F20200000A9
:101900008080000000808000001F202020103F20E9
:10191000808080000080808000010E300806010079
:1019200080800080008080800F300C030C300F001E
:1019300000808000808080000020312E0E31200049
:10194000808080000080808080818E701806010079
:1019500000808080808080000021302C2221300097
:1019600000000000807C020200000000003F4040B8
:1019700000000000FF00000000000000FF00000069
:101980000002027C800000000040403F0000000098
:101990000080404080000080000000000001010045
:1019A0000000000000000000002F00000000070001
:1019B000070000147F147F1400242A7F2A120023BA
:1019C00013086462003649552250000000070000E9
:1019D00000001C224100000041221C000014083EAF
:1019E00008140008083E0808000000A06000000875
:1019F00008080808000060600000002010080402C9
:101A0000003E5149453E0000427F40000042615186
:101A10004946002141454B31001814127F10002720
:101A200045454539003C4A494930000171090503E3
:101A300000364949493600064949291E0000363614
:101A40000000000056360000000814224100001477
:101A50001414141400004122140800020151090654
:101A6000003E4955592E007C1211127C007F4949D5
:101A70004936003E41414122007F4141221C007F06
:101A800049494941007F09090901003E4149497A14
:101A9000007F0808087F0000417F4100002040418E
:101AA0003F01007F08142241007F40404040007FFA
:101AB000020C027F007F0408107F003E4141413E3E
:101AC000007F09090906003E4151215E007F091986
:101AD00029460046494949310001017F0101003F83
:101AE0004040403F001F2040201F003F4038403F03
:101AF0000063140814630007087008070061514967
:101B0000454300007F41410000020408102000000E
:101B100041417F0000040201020400404040404077
:101B2000000001020400002054545478007F48440F
:101B3000443800384444442000384444487F003846
:101B40005454541800087E0901020018A4A4A47C6F
:101B5000007F080404780000447D40000040808439
:101B60007D00007F102844000000417F4000007C81
:101B700004180478007C080404780038444444388D
:101B800000FC242424180018242418FC007C0804D9
:101B9000040800485454542000043F444020003CB2
:101BA0004040207C001C2040201C003C4030403C39
:101BB000004428102844001CA0A0A07C00446454C9
:101BC0004C440000087F41000000007F000000003E
:101BD000417F080000080408100801020203040500
:101BE000060708090A0B0C0D0E0F1010000000006C
:101BF0000000000001020304060708091C1C00087D
:101C000000000020EC060000280100080C1F00085E
:101C1000EC060020440B000084010008011E420C69
:101C20006A8001290A0B13888028021304D3081044
:101C300079473942B931CB101828A384841BFEFFA1
:101C4000012AF70112E7290B1AFF226CC0E0F0010C
:101C500011690B1CE0C0C05A69171AC00E212AF87E
:101C60000149064AF83D2BFFC7056AFE1B1A804B47
:101C70006901295719015AF06581390F3A03016941
:101C80008039074AC1505957B90E4ADF0E211B3F10
:101C90007F07495169295ACF1B2AFE01795E1A0133
:101CA00001490CDBC3C380497AC90C4A0190150372
:101CB0000307073A7F011A07013201790E2A030E42
:101CC000411B7C7C11143F3F1F29233901391B39EB
:101CD0000A114A0107212C80C080577924D1A30220
:101CE000026A018C01104B20C001215907012E69A5
:101CF000AF012F4AF001280CF3F3CFCF3F3F3FFF56
:101D0000FFC0C00619010563C3C3FCFC1F03030326
:101D10000F0FCF01880DF3F3FCFCFCFFFFCFCF3397
:101D200033CC0103150C0C1640C0C0C04092C01A41
:101D3000C00B2904113D804040C018390E10080C1A
:101D400038608060380C12FC12800C1BFC8484D03C
:101D5000198969010122250C181F0F550F08080861
:101D600058090E07030E0E03070C121906340C0750
:101D7000014809E0181CC662321A0A011CF202FE70
:101D8000B7091C014DE0201090017C103020E04F7D
:101D9000E0180CC6221201AE2266C418F0333D20B2
:101DA0003018980116181820E0C09A800122FF19F7
:101DB00003111DFF01F1110112F1100DC1300C04CE
:101DC00004848484040404FC1AFC06B9011F18600E
:101DD000C10101F8B91DE01010E0C565F801FEFC75
:101DE00079484AFE0E293B191B490724F80C0F1AA3
:101DF000C0AD280B010FF80101E1380C0682011972
:101E00002B6AFF382989290B29077D7F40407F0DE8
:101E10004CFF01011B490859302E038446434027DB
:101E2000294199803A7F3AA9481B80C0254158082A
:101E300007C4272020203F70111CF8FC0C01480922
:101E40000F0F183063444850014809584F407163E0
:101E5000465C580E3C5F405F062B405F1159083EC0
:101E60005F40607346082C407F0301620129484BA4
:101E7000464C394E4C6261404F0A18134663301885
:101E80000C182043464C48484F407E03033F4739D7
:101E90004E3A7FA991280AE0E0F81C181C1C1C0788
:101EA000013FE7E7E71F1F170B861818E0E0E03C4B
:101EB000FCFCFF15591A191B31571F1F1FE0E0C00A
:101EC0002B1F1FDB3AFFEF111E07071F38383D3964
:101ED000013E3818180707671DE03838FF60A90170
:101EE0005CFF3838321B07380129726901391D89B6
:101EF00001199F2203100C1864A69981A7715556E9
:0C1F00007C10320182101324F400000059
:04000005080000ED02
:00000001FF
